{
  "_format": "hh-sol-artifact-1",
  "contractName": "CollateralNFT",
  "sourceName": "contracts/CollateralNFT.sol",
  "abi": [
    {
      "inputs": [],
      "stateMutability": "nonpayable",
      "type": "constructor"
    },
    {
      "inputs": [
        {
          "internalType": "address",
          "name": "sender",
          "type": "address"
        },
        {
          "internalType": "uint256",
          "name": "tokenId",
          "type": "uint256"
        },
        {
          "internalType": "address",
          "name": "owner",
          "type": "address"
        }
      ],
      "name": "ERC721IncorrectOwner",
      "type": "error"
    },
    {
      "inputs": [
        {
          "internalType": "address",
          "name": "operator",
          "type": "address"
        },
        {
          "internalType": "uint256",
          "name": "tokenId",
          "type": "uint256"
        }
      ],
      "name": "ERC721InsufficientApproval",
      "type": "error"
    },
    {
      "inputs": [
        {
          "internalType": "address",
          "name": "approver",
          "type": "address"
        }
      ],
      "name": "ERC721InvalidApprover",
      "type": "error"
    },
    {
      "inputs": [
        {
          "internalType": "address",
          "name": "operator",
          "type": "address"
        }
      ],
      "name": "ERC721InvalidOperator",
      "type": "error"
    },
    {
      "inputs": [
        {
          "internalType": "address",
          "name": "owner",
          "type": "address"
        }
      ],
      "name": "ERC721InvalidOwner",
      "type": "error"
    },
    {
      "inputs": [
        {
          "internalType": "address",
          "name": "receiver",
          "type": "address"
        }
      ],
      "name": "ERC721InvalidReceiver",
      "type": "error"
    },
    {
      "inputs": [
        {
          "internalType": "address",
          "name": "sender",
          "type": "address"
        }
      ],
      "name": "ERC721InvalidSender",
      "type": "error"
    },
    {
      "inputs": [
        {
          "internalType": "uint256",
          "name": "tokenId",
          "type": "uint256"
        }
      ],
      "name": "ERC721NonexistentToken",
      "type": "error"
    },
    {
      "inputs": [
        {
          "internalType": "address",
          "name": "owner",
          "type": "address"
        }
      ],
      "name": "OwnableInvalidOwner",
      "type": "error"
    },
    {
      "inputs": [
        {
          "internalType": "address",
          "name": "account",
          "type": "address"
        }
      ],
      "name": "OwnableUnauthorizedAccount",
      "type": "error"
    },
    {
      "inputs": [],
      "name": "ReentrancyGuardReentrantCall",
      "type": "error"
    },
    {
      "anonymous": false,
      "inputs": [
        {
          "indexed": true,
          "internalType": "address",
          "name": "owner",
          "type": "address"
        },
        {
          "indexed": true,
          "internalType": "address",
          "name": "approved",
          "type": "address"
        },
        {
          "indexed": true,
          "internalType": "uint256",
          "name": "tokenId",
          "type": "uint256"
        }
      ],
      "name": "Approval",
      "type": "event"
    },
    {
      "anonymous": false,
      "inputs": [
        {
          "indexed": true,
          "internalType": "address",
          "name": "owner",
          "type": "address"
        },
        {
          "indexed": true,
          "internalType": "address",
          "name": "operator",
          "type": "address"
        },
        {
          "indexed": false,
          "internalType": "bool",
          "name": "approved",
          "type": "bool"
        }
      ],
      "name": "ApprovalForAll",
      "type": "event"
    },
    {
      "anonymous": false,
      "inputs": [
        {
          "indexed": true,
          "internalType": "uint256",
          "name": "tokenId",
          "type": "uint256"
        },
        {
          "indexed": true,
          "internalType": "uint256",
          "name": "loanId",
          "type": "uint256"
        }
      ],
      "name": "CollateralLocked",
      "type": "event"
    },
    {
      "anonymous": false,
      "inputs": [
        {
          "indexed": true,
          "internalType": "uint256",
          "name": "tokenId",
          "type": "uint256"
        },
        {
          "indexed": true,
          "internalType": "address",
          "name": "owner",
          "type": "address"
        },
        {
          "indexed": false,
          "internalType": "string",
          "name": "metadataURI",
          "type": "string"
        }
      ],
      "name": "CollateralMinted",
      "type": "event"
    },
    {
      "anonymous": false,
      "inputs": [
        {
          "indexed": true,
          "internalType": "uint256",
          "name": "tokenId",
          "type": "uint256"
        }
      ],
      "name": "CollateralUnlocked",
      "type": "event"
    },
    {
      "anonymous": false,
      "inputs": [
        {
          "indexed": true,
          "internalType": "address",
          "name": "newPlatform",
          "type": "address"
        }
      ],
      "name": "LendingPlatformUpdated",
      "type": "event"
    },
    {
      "anonymous": false,
      "inputs": [
        {
          "indexed": true,
          "internalType": "uint256",
          "name": "tokenId",
          "type": "uint256"
        },
        {
          "indexed": false,
          "internalType": "string",
          "name": "oldMetadataURI",
          "type": "string"
        },
        {
          "indexed": false,
          "internalType": "string",
          "name": "newMetadataURI",
          "type": "string"
        }
      ],
      "name": "MetadataUpdated",
      "type": "event"
    },
    {
      "anonymous": false,
      "inputs": [
        {
          "indexed": true,
          "internalType": "address",
          "name": "previousOwner",
          "type": "address"
        },
        {
          "indexed": true,
          "internalType": "address",
          "name": "newOwner",
          "type": "address"
        }
      ],
      "name": "OwnershipTransferred",
      "type": "event"
    },
    {
      "anonymous": false,
      "inputs": [
        {
          "indexed": true,
          "internalType": "address",
          "name": "from",
          "type": "address"
        },
        {
          "indexed": true,
          "internalType": "address",
          "name": "to",
          "type": "address"
        },
        {
          "indexed": true,
          "internalType": "uint256",
          "name": "tokenId",
          "type": "uint256"
        }
      ],
      "name": "Transfer",
      "type": "event"
    },
    {
      "inputs": [
        {
          "internalType": "address",
          "name": "to",
          "type": "address"
        },
        {
          "internalType": "uint256",
          "name": "tokenId",
          "type": "uint256"
        }
      ],
      "name": "approve",
      "outputs": [],
      "stateMutability": "nonpayable",
      "type": "function"
    },
    {
      "inputs": [
        {
          "internalType": "address",
          "name": "owner",
          "type": "address"
        }
      ],
      "name": "balanceOf",
      "outputs": [
        {
          "internalType": "uint256",
          "name": "",
          "type": "uint256"
        }
      ],
      "stateMutability": "view",
      "type": "function"
    },
    {
      "inputs": [
        {
          "internalType": "uint256",
          "name": "",
          "type": "uint256"
        }
      ],
      "name": "collaterals",
      "outputs": [
        {
          "internalType": "string",
          "name": "metadataURI",
          "type": "string"
        },
        {
          "internalType": "bool",
          "name": "locked",
          "type": "bool"
        },
        {
          "internalType": "uint256",
          "name": "loanId",
          "type": "uint256"
        }
      ],
      "stateMutability": "view",
      "type": "function"
    },
    {
      "inputs": [
        {
          "internalType": "uint256",
          "name": "tokenId",
          "type": "uint256"
        }
      ],
      "name": "getApproved",
      "outputs": [
        {
          "internalType": "address",
          "name": "",
          "type": "address"
        }
      ],
      "stateMutability": "view",
      "type": "function"
    },
    {
      "inputs": [
        {
          "internalType": "uint256",
          "name": "tokenId",
          "type": "uint256"
        }
      ],
      "name": "getCollateral",
      "outputs": [
        {
          "components": [
            {
              "internalType": "string",
              "name": "metadataURI",
              "type": "string"
            },
            {
              "internalType": "bool",
              "name": "locked",
              "type": "bool"
            },
            {
              "internalType": "uint256",
              "name": "loanId",
              "type": "uint256"
            }
          ],
          "internalType": "struct CollateralNFT.Collateral",
          "name": "",
          "type": "tuple"
        }
      ],
      "stateMutability": "view",
      "type": "function"
    },
    {
      "inputs": [
        {
          "internalType": "address",
          "name": "owner",
          "type": "address"
        },
        {
          "internalType": "address",
          "name": "operator",
          "type": "address"
        }
      ],
      "name": "isApprovedForAll",
      "outputs": [
        {
          "internalType": "bool",
          "name": "",
          "type": "bool"
        }
      ],
      "stateMutability": "view",
      "type": "function"
    },
    {
      "inputs": [
        {
          "internalType": "uint256",
          "name": "tokenId",
          "type": "uint256"
        }
      ],
      "name": "isLocked",
      "outputs": [
        {
          "internalType": "bool",
          "name": "",
          "type": "bool"
        }
      ],
      "stateMutability": "view",
      "type": "function"
    },
    {
      "inputs": [],
      "name": "lendingPlatform",
      "outputs": [
        {
          "internalType": "address",
          "name": "",
          "type": "address"
        }
      ],
      "stateMutability": "view",
      "type": "function"
    },
    {
      "inputs": [
        {
          "internalType": "uint256",
          "name": "tokenId",
          "type": "uint256"
        },
        {
          "internalType": "uint256",
          "name": "loanId",
          "type": "uint256"
        }
      ],
      "name": "lockCollateral",
      "outputs": [],
      "stateMutability": "nonpayable",
      "type": "function"
    },
    {
      "inputs": [
        {
          "internalType": "address",
          "name": "to",
          "type": "address"
        },
        {
          "internalType": "string",
          "name": "metadataURI",
          "type": "string"
        }
      ],
      "name": "mintCollateral",
      "outputs": [
        {
          "internalType": "uint256",
          "name": "",
          "type": "uint256"
        }
      ],
      "stateMutability": "nonpayable",
      "type": "function"
    },
    {
      "inputs": [],
      "name": "name",
      "outputs": [
        {
          "internalType": "string",
          "name": "",
          "type": "string"
        }
      ],
      "stateMutability": "view",
      "type": "function"
    },
    {
      "inputs": [],
      "name": "owner",
      "outputs": [
        {
          "internalType": "address",
          "name": "",
          "type": "address"
        }
      ],
      "stateMutability": "view",
      "type": "function"
    },
    {
      "inputs": [
        {
          "internalType": "uint256",
          "name": "tokenId",
          "type": "uint256"
        }
      ],
      "name": "ownerOf",
      "outputs": [
        {
          "internalType": "address",
          "name": "",
          "type": "address"
        }
      ],
      "stateMutability": "view",
      "type": "function"
    },
    {
      "inputs": [],
      "name": "renounceOwnership",
      "outputs": [],
      "stateMutability": "nonpayable",
      "type": "function"
    },
    {
      "inputs": [
        {
          "internalType": "address",
          "name": "from",
          "type": "address"
        },
        {
          "internalType": "address",
          "name": "to",
          "type": "address"
        },
        {
          "internalType": "uint256",
          "name": "tokenId",
          "type": "uint256"
        }
      ],
      "name": "safeTransferFrom",
      "outputs": [],
      "stateMutability": "nonpayable",
      "type": "function"
    },
    {
      "inputs": [
        {
          "internalType": "address",
          "name": "from",
          "type": "address"
        },
        {
          "internalType": "address",
          "name": "to",
          "type": "address"
        },
        {
          "internalType": "uint256",
          "name": "tokenId",
          "type": "uint256"
        },
        {
          "internalType": "bytes",
          "name": "data",
          "type": "bytes"
        }
      ],
      "name": "safeTransferFrom",
      "outputs": [],
      "stateMutability": "nonpayable",
      "type": "function"
    },
    {
      "inputs": [
        {
          "internalType": "address",
          "name": "operator",
          "type": "address"
        },
        {
          "internalType": "bool",
          "name": "approved",
          "type": "bool"
        }
      ],
      "name": "setApprovalForAll",
      "outputs": [],
      "stateMutability": "nonpayable",
      "type": "function"
    },
    {
      "inputs": [
        {
          "internalType": "address",
          "name": "_lendingPlatform",
          "type": "address"
        }
      ],
      "name": "setLendingPlatform",
      "outputs": [],
      "stateMutability": "nonpayable",
      "type": "function"
    },
    {
      "inputs": [
        {
          "internalType": "bytes4",
          "name": "interfaceId",
          "type": "bytes4"
        }
      ],
      "name": "supportsInterface",
      "outputs": [
        {
          "internalType": "bool",
          "name": "",
          "type": "bool"
        }
      ],
      "stateMutability": "view",
      "type": "function"
    },
    {
      "inputs": [],
      "name": "symbol",
      "outputs": [
        {
          "internalType": "string",
          "name": "",
          "type": "string"
        }
      ],
      "stateMutability": "view",
      "type": "function"
    },
    {
      "inputs": [
        {
          "internalType": "uint256",
          "name": "tokenId",
          "type": "uint256"
        }
      ],
      "name": "tokenURI",
      "outputs": [
        {
          "internalType": "string",
          "name": "",
          "type": "string"
        }
      ],
      "stateMutability": "view",
      "type": "function"
    },
    {
      "inputs": [],
      "name": "totalSupply",
      "outputs": [
        {
          "internalType": "uint256",
          "name": "",
          "type": "uint256"
        }
      ],
      "stateMutability": "view",
      "type": "function"
    },
    {
      "inputs": [
        {
          "internalType": "address",
          "name": "from",
          "type": "address"
        },
        {
          "internalType": "address",
          "name": "to",
          "type": "address"
        },
        {
          "internalType": "uint256",
          "name": "tokenId",
          "type": "uint256"
        }
      ],
      "name": "transferFrom",
      "outputs": [],
      "stateMutability": "nonpayable",
      "type": "function"
    },
    {
      "inputs": [
        {
          "internalType": "address",
          "name": "newOwner",
          "type": "address"
        }
      ],
      "name": "transferOwnership",
      "outputs": [],
      "stateMutability": "nonpayable",
      "type": "function"
    },
    {
      "inputs": [
        {
          "internalType": "uint256",
          "name": "tokenId",
          "type": "uint256"
        }
      ],
      "name": "unlockCollateral",
      "outputs": [],
      "stateMutability": "nonpayable",
      "type": "function"
    },
    {
      "inputs": [
        {
          "internalType": "uint256",
          "name": "tokenId",
          "type": "uint256"
        },
        {
          "internalType": "string",
          "name": "newMetadataURI",
          "type": "string"
        }
      ],
      "name": "updateMetadata",
      "outputs": [],
      "stateMutability": "nonpayable",
      "type": "function"
    }
  ],
  "bytecode": "0x60806040523461039857604080519081016001600160401b038111828210176102a55760409081526011825270105b585b985a0810dbdb1b185d195c985b607a1b602083015280519081016001600160401b038111828210176102a557604052600481526320a6a0a760e11b602082015281516001600160401b0381116102a557600054600181811c9116801561038e575b602082101461028557601f811161032a575b50602092601f82116001146102c657928192936000926102bb575b50508160011b916000199060031b1c1916176000555b80516001600160401b0381116102a557600154600181811c9116801561029b575b602082101461028557601f8111610220575b50602091601f82116001146101bc579181926000926101b1575b50508160011b916000199060031b1c1916176001555b331561019b5760068054336001600160a01b03198216811790925560405191906001600160a01b03167f8be0079c531659141344cd1fd0a4f28419497f9722a3daafe3b4186f6b6457e0600080a360016007556001600855611aa9908161039e8239f35b631e4fbdf760e01b600052600060045260246000fd5b015190503880610121565b601f198216926001600052806000209160005b858110610208575083600195106101ef575b505050811b01600155610137565b015160001960f88460031b161c191690553880806101e1565b919260206001819286850151815501940192016101cf565b60016000527fb10e2d527612073b26eecdfd717e6a320cf44b4afac2b0732d9fcbe2b7fa0cf6601f830160051c8101916020841061027b575b601f0160051c01905b81811061026f5750610107565b60008155600101610262565b9091508190610259565b634e487b7160e01b600052602260045260246000fd5b90607f16906100f5565b634e487b7160e01b600052604160045260246000fd5b0151905038806100be565b601f1982169360008052806000209160005b86811061031257508360019596106102f9575b505050811b016000556100d4565b015160001960f88460031b161c191690553880806102eb565b919260206001819286850151815501940192016102d8565b600080527f290decd9548b62a8d60345a988386fc84ba6bc95484008f6362f93160ef3e563601f830160051c81019160208410610384575b601f0160051c01905b81811061037857506100a3565b6000815560010161036b565b9091508190610362565b90607f1690610091565b600080fdfe608080604052600436101561001357600080fd5b60003560e01c90816301ffc9a7146113385750806306fdde0314611293578063081812fc14611255578063095ea7b3146111665780630fcc834e1461107b57806318160ddd1461105057806323b872dd1461103957806324c1173b14610fd95780632a62a49014610f155780633c6fd08c14610e7557806342842e0e14610e4557806353c8388e14610c115780636352211e14610be157806370a0823114610b8b578063715018a614610b2e5780638da5cb5b14610b0557806395d89b4114610a38578063a22cb4651461098e578063b1f9133c14610898578063b88d4fde1461082b578063c87b56dd146107c4578063e5133e1c146102a7578063e985e9c51461024c578063eefb43a214610223578063f2fde38b146101995763f6aacfb11461013d57600080fd5b3461019457602036600319011261019457600435600081815260026020526040902054610174906001600160a01b03161515611618565b600052600a602052602060ff600160406000200154166040519015158152f35b600080fd5b34610194576020366003190112610194576101b26113e4565b6101ba611906565b6001600160a01b0316801561020d57600680546001600160a01b0319811683179091556001600160a01b03167f8be0079c531659141344cd1fd0a4f28419497f9722a3daafe3b4186f6b6457e0600080a3005b631e4fbdf760e01b600052600060045260246000fd5b34610194576000366003190112610194576009546040516001600160a01b039091168152602090f35b34610194576040366003190112610194576102656113e4565b61026d6113fa565b9060018060a01b0316600052600560205260406000209060018060a01b0316600052602052602060ff604060002054166040519015158152f35b34610194576040366003190112610194576102c06113e4565b6024356001600160401b038111610194576102df9036906004016115b6565b6102e7611906565b6102ef6118e4565b6001600160a01b038216801561078b5761030b82511515611869565b600854906000198214610775576001820160085560209260405161032f858261149f565b60008152600095848752600a865260ff600160408920015416610726578487526002865260408720546001600160a01b031680151590816106f2575b856106db575b868952600288526040892080546001600160a01b031916871790558686827fddf252ad1be2c89b69c2b068fc378daa952ba7f163c4a11628f55a4df523b3ef8c80a4506106c7573b6105a3575b506040516103cb81611484565b8181528481018681526040820190878252858852600a87526040882092518051906001600160401b03821161058f57610404855461144a565b601f811161054c575b5097989697959688968a916001601f8511146104b95793836002947ffdf4a4f5dc49b1c7fcd6ad049f7e4de2de1aa983742aaaf273edb0a56994cb2f9997946104889461049e9a98926104ae575b50508160011b916000199060031b1c19161785555b511515600185019060ff801983541691151516179055565b51910155604051918291888352888301906113a3565b0390a36001600755604051908152f35b015190508e8061045b565b9190601f1984168784528c8420935b8d828210610533575050847ffdf4a4f5dc49b1c7fcd6ad049f7e4de2de1aa983742aaaf273edb0a56994cb2f9997946104889461049e9a98946002986001951061051a575b505050811b018555610470565b015160001960f88460031b161c191690558e808061050d565b8484015186558d9b5060019095019493840193016104c8565b858b52898b20601f840160051c8101918b8510610585575b601f0160051c01905b81811061057a575061040d565b8b815560010161056d565b9091508190610564565b634e487b7160e01b8a52604160045260248afd5b846105e29160409796979594955180938192630a85bd0160e11b83523360048401528960248401528760448401526080606484015260848301906113a3565b038188885af1859181610683575b5061064c575050503d600014610644573d9261060b84611564565b93610619604051958661149f565b84523d838286013e5b8351938461063e57633250574960e11b84526004839052602484fd5b84925001fd5b606092610622565b9394939192916001600160e01b03191663757a42ff60e11b0161066f57856103be565b633250574960e11b85526004829052602485fd5b9091508681813d83116106c0575b61069b818361149f565b810103126106bc57516001600160e01b0319811681036106bc5790876105f0565b8580fd5b503d610691565b6339e3563760e11b87526004879052602487fd5b858952600388526040892060018154019055610371565b600087815260046020526040902080546001600160a01b03191690558089526003885260408920805460001901905561036b565b60405162461bcd60e51b815260048101879052602160248201527f43616e6e6f74207472616e73666572206c6f636b656420636f6c6c61746572616044820152601b60fa1b6064820152608490fd5b634e487b7160e01b600052601160045260246000fd5b60405162461bcd60e51b8152602060048201526011602482015270125b9d985b1a59081c9958da5c1a595b9d607a1b6044820152606490fd5b34610194576020366003190112610194576004356000818152600260205260409020546107fb906001600160a01b03161515611618565b600052600a60205261082761081360406000206114c0565b6040519182916020835260208301906113a3565b0390f35b34610194576080366003190112610194576108446113e4565b61084c6113fa565b90604435606435926001600160401b03841161019457366023850112156101945761088461089694369060248160040135910161157f565b9261089083838361165b565b3361192f565b005b3461019457604036600319011261019457600435602435906108c560018060a01b036009541633146115d4565b6108cd6118e4565b6000818152600260205260409020546108f0906001600160a01b03161515611618565b80600052600a60205260ff60016040600020015416610958576000818152600a602052604081206001818101805460ff191690911790556002018390557f52ca0c9f40ef7fc34db743ad1a90f6755f64fa6eb2d7915d9eb7fb6c6b8c24869080a36001600755005b60405162461bcd60e51b815260206004820152600e60248201526d105b1c9958591e481b1bd8dad95960921b6044820152606490fd5b34610194576040366003190112610194576109a76113e4565b6024359081151590818303610194576001600160a01b0316918215610a23576109f59033600052600560205260406000208460005260205260406000209060ff801983541691151516179055565b6040519081527f17307eab39ab6107e8899845ad3d59bd9653f200f220920489ca2b5937696c3160203392a3005b82630b61174360e31b60005260045260246000fd5b34610194576000366003190112610194576040516000600154610a5a8161144a565b8084529060018116908115610ae15750600114610a82575b610827836108138185038261149f565b600160009081527fb10e2d527612073b26eecdfd717e6a320cf44b4afac2b0732d9fcbe2b7fa0cf6939250905b808210610ac757509091508101602001610813610a72565b919260018160209254838588010152019101909291610aaf565b60ff191660208086019190915291151560051b840190910191506108139050610a72565b34610194576000366003190112610194576006546040516001600160a01b039091168152602090f35b3461019457600036600319011261019457610b47611906565b600680546001600160a01b031981169091556000906001600160a01b03167f8be0079c531659141344cd1fd0a4f28419497f9722a3daafe3b4186f6b6457e08280a3005b34610194576020366003190112610194576001600160a01b03610bac6113e4565b168015610bcb5760005260036020526020604060002054604051908152f35b6322718ad960e21b600052600060045260246000fd5b34610194576020366003190112610194576020610bff6004356118ad565b6040516001600160a01b039091168152f35b34610194576040366003190112610194576004356024356001600160401b03811161019457610c449036906004016115b6565b610c4c611906565b610c546118e4565b600082815260026020526040902054610c77906001600160a01b03161515611618565b610c8381511515611869565b81600052600a602052610c9960406000206114c0565b9082600052600a602052604060002081516001600160401b038111610e2f57610cc2825461144a565b601f8111610de7575b506020601f8211600114610d5957927f4bb348c8e52124f1a18e983f64ad1bc5d380a3ca43654fbb2b8f73c71f305459949282610d4493610d3696600091610d4e575b508160011b916000199060031b1c19161790555b6040519384936040855260408501906113a3565b9083820360208501526113a3565b0390a26001600755005b905083015189610d0e565b601f1982169083600052806000209160005b818110610dcf575083610d3696937f4bb348c8e52124f1a18e983f64ad1bc5d380a3ca43654fbb2b8f73c71f305459989693610d449660019410610db6575b5050811b019055610d22565b85015160001960f88460031b161c191690558980610daa565b9192602060018192868a015181550194019201610d6b565b826000526020600020601f830160051c81019160208410610e25575b601f0160051c01905b818110610e195750610ccb565b60008155600101610e0c565b9091508190610e03565b634e487b7160e01b600052604160045260246000fd5b3461019457610896610e5636611410565b9060405192610e6660208561149f565b6000845261089083838361165b565b3461019457602036600319011261019457610e8e6113e4565b610e96611906565b6001600160a01b03168015610ede57600980546001600160a01b031916821790557fdc14072151907dd026099a919c1c8d7552cfd31797eb5d81f2c578d0d654abed600080a2005b60405162461bcd60e51b815260206004820152600f60248201526e496e76616c6964206164647265737360881b6044820152606490fd5b3461019457602036600319011261019457600435600060408051610f3881611484565b606081528260208201520152806000526002602052610f6560018060a01b03604060002054161515611618565b600052600a602052610fc6604060002060405190610f8282611484565b610f8b816114c0565b8252600260ff6001830154169160208401921515835201546040830190815260405193849360208552516060602086015260808501906113a3565b9151151560408401525160608301520390f35b3461019457602036600319011261019457600435600052600a6020526110286040600020611006816114c0565b90600260ff6001830154169101546040519384936060855260608501906113a3565b911515602084015260408301520390f35b346101945761089661104a36611410565b9161165b565b3461019457600036600319011261019457600854600019810190811161077557602090604051908152f35b34610194576020366003190112610194576004356110a460018060a01b036009541633146115d4565b6110ac6118e4565b6000818152600260205260409020546110cf906001600160a01b03161515611618565b80600052600a60205260ff6001604060002001541615611134576000818152600a6020526040812060018101805460ff191690556002018190557f16bff137dc9a751d3af96d5df7f9066925d7a7e669ec46ebf86326aea0696e189080a26001600755005b60405162461bcd60e51b815260206004820152600a602482015269139bdd081b1bd8dad95960b21b6044820152606490fd5b346101945760403660031901126101945761117f6113e4565b60243561118b816118ad565b33151580611242575b80611214575b6111ff5781906001600160a01b0384811691167f8c5be1e5ebec7d5bd14f71427d1e84f3dd0314c0f7b2291e5b200ac8c7c3b925600080a4600090815260046020526040902080546001600160a01b0319166001600160a01b03909216919091179055005b63a9fbf51f60e01b6000523360045260246000fd5b506001600160a01b038116600090815260056020908152604080832033845290915290205460ff161561119a565b506001600160a01b038116331415611194565b3461019457602036600319011261019457600435611272816118ad565b506000526004602052602060018060a01b0360406000205416604051908152f35b3461019457600036600319011261019457604051600080546112b48161144a565b8084529060018116908115610ae157506001146112db57610827836108138185038261149f565b60008080527f290decd9548b62a8d60345a988386fc84ba6bc95484008f6362f93160ef3e563939250905b80821061131e57509091508101602001610813610a72565b919260018160209254838588010152019101909291611306565b34610194576020366003190112610194576004359063ffffffff60e01b8216809203610194576020916380ac58cd60e01b8114908115611392575b8115611381575b5015158152f35b6301ffc9a760e01b1490508361137a565b635b5e139f60e01b81149150611373565b919082519283825260005b8481106113cf575050826000602080949584010152601f8019910116010190565b806020809284010151828286010152016113ae565b600435906001600160a01b038216820361019457565b602435906001600160a01b038216820361019457565b6060906003190112610194576004356001600160a01b038116810361019457906024356001600160a01b0381168103610194579060443590565b90600182811c9216801561147a575b602083101461146457565b634e487b7160e01b600052602260045260246000fd5b91607f1691611459565b606081019081106001600160401b03821117610e2f57604052565b90601f801991011681019081106001600160401b03821117610e2f57604052565b90604051918260008254926114d48461144a565b808452936001811690811561154257506001146114fb575b506114f99250038361149f565b565b90506000929192526020600020906000915b8183106115265750509060206114f992820101386114ec565b602091935080600191548385890101520191019091849261150d565b9050602092506114f994915060ff191682840152151560051b820101386114ec565b6001600160401b038111610e2f57601f01601f191660200190565b92919261158b82611564565b91611599604051938461149f565b829481845281830111610194578281602093846000960137010152565b9080601f83011215610194578160206115d19335910161157f565b90565b156115db57565b60405162461bcd60e51b81526020600482015260156024820152744f6e6c79206c656e64696e6720706c6174666f726d60581b6044820152606490fd5b1561161f57565b60405162461bcd60e51b8152602060048201526014602482015273151bdad95b88191bd95cc81b9bdd08195e1a5cdd60621b6044820152606490fd5b6001600160a01b039091169190821561185357600092828452600a60205260ff60016040862001541661180457828452600260205260408420546001600160a01b03169383919085903315158061176c575b507fddf252ad1be2c89b69c2b068fc378daa952ba7f163c4a11628f55a4df523b3ef9082611737575b838152600360209081526040808320805460010190558683526002909152812080546001600160a01b0319168517905580a46001600160a01b031680830361171d57505050565b6364283d7b60e01b60005260045260245260445260646000fd5b600085815260046020526040902080546001600160a01b031916905582815260036020526040812080546000190190556116d6565b9150919250806117b5575b156117865790848492386116ad565b83908561179f57602491637e27328960e01b8252600452fd5b60449163177e802f60e01b825233600452602452fd5b5033851480156117e3575b806117775750838152600460205260408120546001600160a01b03163314611777565b5084815260056020908152604080832033845290915281205460ff166117c0565b60405162461bcd60e51b815260206004820152602160248201527f43616e6e6f74207472616e73666572206c6f636b656420636f6c6c61746572616044820152601b60fa1b6064820152608490fd5b633250574960e11b600052600060045260246000fd5b1561187057565b60405162461bcd60e51b815260206004820152601560248201527413595d1859185d1848155492481c995c5d5a5c9959605a1b6044820152606490fd5b6000818152600260205260409020546001600160a01b03169081156118d0575090565b637e27328960e01b60005260045260246000fd5b6002600754146118f5576002600755565b633ee5aeb560e01b60005260046000fd5b6006546001600160a01b0316330361191a57565b63118cdaa760e01b6000523360045260246000fd5b823b61193d575b5050505050565b604051630a85bd0160e11b81526001600160a01b0391821660048201529181166024830152604482019390935260806064820152911691602090829081906119899060848301906113a3565b03816000865af18091600091611a29575b50906119f357503d156119ec573d6119b181611564565b906119bf604051928361149f565b81523d6000602083013e5b805190816119e75782633250574960e11b60005260045260246000fd5b602001fd5b60606119ca565b6001600160e01b03191663757a42ff60e11b01611a1557503880808080611936565b633250574960e11b60005260045260246000fd5b6020813d602011611a6b575b81611a426020938361149f565b81010312611a675751906001600160e01b031982168203611a6457503861199a565b80fd5b5080fd5b3d9150611a3556fea2646970667358221220dfa410aa146f25bd5800137c3371822af04ce36bfb14e8517ddb3ddb8b0c4ae064736f6c634300081c0033",
  "linkReferences": {},
  "deployedLinkReferences": {}
}