{
  "_format": "hh-sol-artifact-1",
  "contractName": "CollateralNFT",
  "sourceName": "contracts/CollateralNFT.sol",
  "abi": [
    {
      "inputs": [],
      "stateMutability": "nonpayable",
      "type": "constructor"
    },
    {
      "inputs": [
        {
          "internalType": "address",
          "name": "sender",
          "type": "address"
        },
        {
          "internalType": "uint256",
          "name": "tokenId",
          "type": "uint256"
        },
        {
          "internalType": "address",
          "name": "owner",
          "type": "address"
        }
      ],
      "name": "ERC721IncorrectOwner",
      "type": "error"
    },
    {
      "inputs": [
        {
          "internalType": "address",
          "name": "operator",
          "type": "address"
        },
        {
          "internalType": "uint256",
          "name": "tokenId",
          "type": "uint256"
        }
      ],
      "name": "ERC721InsufficientApproval",
      "type": "error"
    },
    {
      "inputs": [
        {
          "internalType": "address",
          "name": "approver",
          "type": "address"
        }
      ],
      "name": "ERC721InvalidApprover",
      "type": "error"
    },
    {
      "inputs": [
        {
          "internalType": "address",
          "name": "operator",
          "type": "address"
        }
      ],
      "name": "ERC721InvalidOperator",
      "type": "error"
    },
    {
      "inputs": [
        {
          "internalType": "address",
          "name": "owner",
          "type": "address"
        }
      ],
      "name": "ERC721InvalidOwner",
      "type": "error"
    },
    {
      "inputs": [
        {
          "internalType": "address",
          "name": "receiver",
          "type": "address"
        }
      ],
      "name": "ERC721InvalidReceiver",
      "type": "error"
    },
    {
      "inputs": [
        {
          "internalType": "address",
          "name": "sender",
          "type": "address"
        }
      ],
      "name": "ERC721InvalidSender",
      "type": "error"
    },
    {
      "inputs": [
        {
          "internalType": "uint256",
          "name": "tokenId",
          "type": "uint256"
        }
      ],
      "name": "ERC721NonexistentToken",
      "type": "error"
    },
    {
      "inputs": [
        {
          "internalType": "address",
          "name": "owner",
          "type": "address"
        }
      ],
      "name": "OwnableInvalidOwner",
      "type": "error"
    },
    {
      "inputs": [
        {
          "internalType": "address",
          "name": "account",
          "type": "address"
        }
      ],
      "name": "OwnableUnauthorizedAccount",
      "type": "error"
    },
    {
      "inputs": [],
      "name": "ReentrancyGuardReentrantCall",
      "type": "error"
    },
    {
      "anonymous": false,
      "inputs": [
        {
          "indexed": true,
          "internalType": "address",
          "name": "owner",
          "type": "address"
        },
        {
          "indexed": true,
          "internalType": "address",
          "name": "approved",
          "type": "address"
        },
        {
          "indexed": true,
          "internalType": "uint256",
          "name": "tokenId",
          "type": "uint256"
        }
      ],
      "name": "Approval",
      "type": "event"
    },
    {
      "anonymous": false,
      "inputs": [
        {
          "indexed": true,
          "internalType": "address",
          "name": "owner",
          "type": "address"
        },
        {
          "indexed": true,
          "internalType": "address",
          "name": "operator",
          "type": "address"
        },
        {
          "indexed": false,
          "internalType": "bool",
          "name": "approved",
          "type": "bool"
        }
      ],
      "name": "ApprovalForAll",
      "type": "event"
    },
    {
      "anonymous": false,
      "inputs": [
        {
          "indexed": true,
          "internalType": "uint256",
          "name": "tokenId",
          "type": "uint256"
        },
        {
          "indexed": true,
          "internalType": "uint256",
          "name": "loanId",
          "type": "uint256"
        }
      ],
      "name": "CollateralLocked",
      "type": "event"
    },
    {
      "anonymous": false,
      "inputs": [
        {
          "indexed": true,
          "internalType": "uint256",
          "name": "tokenId",
          "type": "uint256"
        },
        {
          "indexed": true,
          "internalType": "address",
          "name": "owner",
          "type": "address"
        },
        {
          "indexed": false,
          "internalType": "string",
          "name": "metadataURI",
          "type": "string"
        }
      ],
      "name": "CollateralMinted",
      "type": "event"
    },
    {
      "anonymous": false,
      "inputs": [
        {
          "indexed": true,
          "internalType": "uint256",
          "name": "tokenId",
          "type": "uint256"
        }
      ],
      "name": "CollateralUnlocked",
      "type": "event"
    },
    {
      "anonymous": false,
      "inputs": [
        {
          "indexed": true,
          "internalType": "address",
          "name": "newPlatform",
          "type": "address"
        }
      ],
      "name": "LendingPlatformUpdated",
      "type": "event"
    },
    {
      "anonymous": false,
      "inputs": [
        {
          "indexed": true,
          "internalType": "address",
          "name": "previousOwner",
          "type": "address"
        },
        {
          "indexed": true,
          "internalType": "address",
          "name": "newOwner",
          "type": "address"
        }
      ],
      "name": "OwnershipTransferred",
      "type": "event"
    },
    {
      "anonymous": false,
      "inputs": [
        {
          "indexed": true,
          "internalType": "address",
          "name": "from",
          "type": "address"
        },
        {
          "indexed": true,
          "internalType": "address",
          "name": "to",
          "type": "address"
        },
        {
          "indexed": true,
          "internalType": "uint256",
          "name": "tokenId",
          "type": "uint256"
        }
      ],
      "name": "Transfer",
      "type": "event"
    },
    {
      "inputs": [
        {
          "internalType": "address",
          "name": "to",
          "type": "address"
        },
        {
          "internalType": "uint256",
          "name": "tokenId",
          "type": "uint256"
        }
      ],
      "name": "approve",
      "outputs": [],
      "stateMutability": "nonpayable",
      "type": "function"
    },
    {
      "inputs": [
        {
          "internalType": "address",
          "name": "owner",
          "type": "address"
        }
      ],
      "name": "balanceOf",
      "outputs": [
        {
          "internalType": "uint256",
          "name": "",
          "type": "uint256"
        }
      ],
      "stateMutability": "view",
      "type": "function"
    },
    {
      "inputs": [
        {
          "internalType": "uint256",
          "name": "",
          "type": "uint256"
        }
      ],
      "name": "collaterals",
      "outputs": [
        {
          "internalType": "string",
          "name": "metadataURI",
          "type": "string"
        },
        {
          "internalType": "bool",
          "name": "locked",
          "type": "bool"
        },
        {
          "internalType": "uint256",
          "name": "loanId",
          "type": "uint256"
        }
      ],
      "stateMutability": "view",
      "type": "function"
    },
    {
      "inputs": [
        {
          "internalType": "uint256",
          "name": "tokenId",
          "type": "uint256"
        }
      ],
      "name": "getApproved",
      "outputs": [
        {
          "internalType": "address",
          "name": "",
          "type": "address"
        }
      ],
      "stateMutability": "view",
      "type": "function"
    },
    {
      "inputs": [
        {
          "internalType": "uint256",
          "name": "tokenId",
          "type": "uint256"
        }
      ],
      "name": "getCollateral",
      "outputs": [
        {
          "components": [
            {
              "internalType": "string",
              "name": "metadataURI",
              "type": "string"
            },
            {
              "internalType": "bool",
              "name": "locked",
              "type": "bool"
            },
            {
              "internalType": "uint256",
              "name": "loanId",
              "type": "uint256"
            }
          ],
          "internalType": "struct CollateralNFT.Collateral",
          "name": "",
          "type": "tuple"
        }
      ],
      "stateMutability": "view",
      "type": "function"
    },
    {
      "inputs": [
        {
          "internalType": "address",
          "name": "owner",
          "type": "address"
        },
        {
          "internalType": "address",
          "name": "operator",
          "type": "address"
        }
      ],
      "name": "isApprovedForAll",
      "outputs": [
        {
          "internalType": "bool",
          "name": "",
          "type": "bool"
        }
      ],
      "stateMutability": "view",
      "type": "function"
    },
    {
      "inputs": [
        {
          "internalType": "uint256",
          "name": "tokenId",
          "type": "uint256"
        }
      ],
      "name": "isLocked",
      "outputs": [
        {
          "internalType": "bool",
          "name": "",
          "type": "bool"
        }
      ],
      "stateMutability": "view",
      "type": "function"
    },
    {
      "inputs": [],
      "name": "lendingPlatform",
      "outputs": [
        {
          "internalType": "address",
          "name": "",
          "type": "address"
        }
      ],
      "stateMutability": "view",
      "type": "function"
    },
    {
      "inputs": [
        {
          "internalType": "uint256",
          "name": "tokenId",
          "type": "uint256"
        },
        {
          "internalType": "uint256",
          "name": "loanId",
          "type": "uint256"
        }
      ],
      "name": "lockCollateral",
      "outputs": [],
      "stateMutability": "nonpayable",
      "type": "function"
    },
    {
      "inputs": [
        {
          "internalType": "address",
          "name": "to",
          "type": "address"
        },
        {
          "internalType": "string",
          "name": "metadataURI",
          "type": "string"
        }
      ],
      "name": "mintCollateral",
      "outputs": [
        {
          "internalType": "uint256",
          "name": "",
          "type": "uint256"
        }
      ],
      "stateMutability": "nonpayable",
      "type": "function"
    },
    {
      "inputs": [],
      "name": "name",
      "outputs": [
        {
          "internalType": "string",
          "name": "",
          "type": "string"
        }
      ],
      "stateMutability": "view",
      "type": "function"
    },
    {
      "inputs": [],
      "name": "owner",
      "outputs": [
        {
          "internalType": "address",
          "name": "",
          "type": "address"
        }
      ],
      "stateMutability": "view",
      "type": "function"
    },
    {
      "inputs": [
        {
          "internalType": "uint256",
          "name": "tokenId",
          "type": "uint256"
        }
      ],
      "name": "ownerOf",
      "outputs": [
        {
          "internalType": "address",
          "name": "",
          "type": "address"
        }
      ],
      "stateMutability": "view",
      "type": "function"
    },
    {
      "inputs": [],
      "name": "renounceOwnership",
      "outputs": [],
      "stateMutability": "nonpayable",
      "type": "function"
    },
    {
      "inputs": [
        {
          "internalType": "address",
          "name": "from",
          "type": "address"
        },
        {
          "internalType": "address",
          "name": "to",
          "type": "address"
        },
        {
          "internalType": "uint256",
          "name": "tokenId",
          "type": "uint256"
        }
      ],
      "name": "safeTransferFrom",
      "outputs": [],
      "stateMutability": "nonpayable",
      "type": "function"
    },
    {
      "inputs": [
        {
          "internalType": "address",
          "name": "from",
          "type": "address"
        },
        {
          "internalType": "address",
          "name": "to",
          "type": "address"
        },
        {
          "internalType": "uint256",
          "name": "tokenId",
          "type": "uint256"
        },
        {
          "internalType": "bytes",
          "name": "data",
          "type": "bytes"
        }
      ],
      "name": "safeTransferFrom",
      "outputs": [],
      "stateMutability": "nonpayable",
      "type": "function"
    },
    {
      "inputs": [
        {
          "internalType": "address",
          "name": "operator",
          "type": "address"
        },
        {
          "internalType": "bool",
          "name": "approved",
          "type": "bool"
        }
      ],
      "name": "setApprovalForAll",
      "outputs": [],
      "stateMutability": "nonpayable",
      "type": "function"
    },
    {
      "inputs": [
        {
          "internalType": "address",
          "name": "_lendingPlatform",
          "type": "address"
        }
      ],
      "name": "setLendingPlatform",
      "outputs": [],
      "stateMutability": "nonpayable",
      "type": "function"
    },
    {
      "inputs": [
        {
          "internalType": "bytes4",
          "name": "interfaceId",
          "type": "bytes4"
        }
      ],
      "name": "supportsInterface",
      "outputs": [
        {
          "internalType": "bool",
          "name": "",
          "type": "bool"
        }
      ],
      "stateMutability": "view",
      "type": "function"
    },
    {
      "inputs": [],
      "name": "symbol",
      "outputs": [
        {
          "internalType": "string",
          "name": "",
          "type": "string"
        }
      ],
      "stateMutability": "view",
      "type": "function"
    },
    {
      "inputs": [
        {
          "internalType": "uint256",
          "name": "tokenId",
          "type": "uint256"
        }
      ],
      "name": "tokenURI",
      "outputs": [
        {
          "internalType": "string",
          "name": "",
          "type": "string"
        }
      ],
      "stateMutability": "view",
      "type": "function"
    },
    {
      "inputs": [],
      "name": "totalSupply",
      "outputs": [
        {
          "internalType": "uint256",
          "name": "",
          "type": "uint256"
        }
      ],
      "stateMutability": "view",
      "type": "function"
    },
    {
      "inputs": [
        {
          "internalType": "address",
          "name": "from",
          "type": "address"
        },
        {
          "internalType": "address",
          "name": "to",
          "type": "address"
        },
        {
          "internalType": "uint256",
          "name": "tokenId",
          "type": "uint256"
        }
      ],
      "name": "transferFrom",
      "outputs": [],
      "stateMutability": "nonpayable",
      "type": "function"
    },
    {
      "inputs": [
        {
          "internalType": "address",
          "name": "newOwner",
          "type": "address"
        }
      ],
      "name": "transferOwnership",
      "outputs": [],
      "stateMutability": "nonpayable",
      "type": "function"
    },
    {
      "inputs": [
        {
          "internalType": "uint256",
          "name": "tokenId",
          "type": "uint256"
        }
      ],
      "name": "unlockCollateral",
      "outputs": [],
      "stateMutability": "nonpayable",
      "type": "function"
    }
  ],
  "bytecode": "0x60806040523461039857604080519081016001600160401b038111828210176102a55760409081526011825270105b585b985a0810dbdb1b185d195c985b607a1b602083015280519081016001600160401b038111828210176102a557604052600481526320a6a0a760e11b602082015281516001600160401b0381116102a557600054600181811c9116801561038e575b602082101461028557601f811161032a575b50602092601f82116001146102c657928192936000926102bb575b50508160011b916000199060031b1c1916176000555b80516001600160401b0381116102a557600154600181811c9116801561029b575b602082101461028557601f8111610220575b50602091601f82116001146101bc579181926000926101b1575b50508160011b916000199060031b1c1916176001555b331561019b5760068054336001600160a01b03198216811790925560405191906001600160a01b03167f8be0079c531659141344cd1fd0a4f28419497f9722a3daafe3b4186f6b6457e0600080a36001600755600160085561186d908161039e8239f35b631e4fbdf760e01b600052600060045260246000fd5b015190503880610121565b601f198216926001600052806000209160005b858110610208575083600195106101ef575b505050811b01600155610137565b015160001960f88460031b161c191690553880806101e1565b919260206001819286850151815501940192016101cf565b60016000527fb10e2d527612073b26eecdfd717e6a320cf44b4afac2b0732d9fcbe2b7fa0cf6601f830160051c8101916020841061027b575b601f0160051c01905b81811061026f5750610107565b60008155600101610262565b9091508190610259565b634e487b7160e01b600052602260045260246000fd5b90607f16906100f5565b634e487b7160e01b600052604160045260246000fd5b0151905038806100be565b601f1982169360008052806000209160005b86811061031257508360019596106102f9575b505050811b016000556100d4565b015160001960f88460031b161c191690553880806102eb565b919260206001819286850151815501940192016102d8565b600080527f290decd9548b62a8d60345a988386fc84ba6bc95484008f6362f93160ef3e563601f830160051c81019160208410610384575b601f0160051c01905b81811061037857506100a3565b6000815560010161036b565b9091508190610362565b90607f1690610091565b600080fdfe608080604052600436101561001357600080fd5b60003560e01c90816301ffc9a7146111455750806306fdde03146110a0578063081812fc14611062578063095ea7b314610f735780630fcc834e14610e8857806318160ddd14610e5d57806323b872dd14610e4657806324c1173b14610de65780632a62a49014610d225780633c6fd08c14610c8257806342842e0e14610c525780636352211e14610c2257806370a0823114610bcc578063715018a614610b6f5780638da5cb5b14610b4657806395d89b4114610a79578063a22cb465146109cf578063b1f9133c146108d9578063b88d4fde1461086b578063c87b56dd14610804578063e5133e1c1461029c578063e985e9c514610241578063eefb43a214610218578063f2fde38b1461018e5763f6aacfb11461013257600080fd5b3461018957602036600319011261018957600435600081815260026020526040902054610169906001600160a01b03161515611420565b600052600a602052602060ff600160406000200154166040519015158152f35b600080fd5b34610189576020366003190112610189576101a76111f1565b6101af6116ca565b6001600160a01b0316801561020257600680546001600160a01b0319811683179091556001600160a01b03167f8be0079c531659141344cd1fd0a4f28419497f9722a3daafe3b4186f6b6457e0600080a3005b631e4fbdf760e01b600052600060045260246000fd5b34610189576000366003190112610189576009546040516001600160a01b039091168152602090f35b346101895760403660031901126101895761025a6111f1565b610262611207565b9060018060a01b0316600052600560205260406000209060018060a01b0316600052602052602060ff604060002054166040519015158152f35b34610189576040366003190112610189576102b56111f1565b60243567ffffffffffffffff81116101895736602382011215610189576102e69036906024816004013591016113a5565b6102ee6116ca565b6102f66116a8565b6001600160a01b03821680156107cb5781511561078e57600854906000198214610778576001820160085560209260405161033185826112c3565b60008152600095848752600a865260ff600160408920015416610729578487526002865260408720546001600160a01b031680151590816106f5575b856106de575b868952600288526040892080546001600160a01b031916871790558686827fddf252ad1be2c89b69c2b068fc378daa952ba7f163c4a11628f55a4df523b3ef8c80a4506106ca573b6105a6575b506040516103cd81611291565b8181528481018681526040820190878252858852600a875260408820925180519067ffffffffffffffff8211610592576104078554611257565b601f811161054f575b5097989697959688968a916001601f8511146104bc5793836002947ffdf4a4f5dc49b1c7fcd6ad049f7e4de2de1aa983742aaaf273edb0a56994cb2f99979461048b946104a19a98926104b1575b50508160011b916000199060031b1c19161785555b511515600185019060ff801983541691151516179055565b51910155604051918291888352888301906111b0565b0390a36001600755604051908152f35b015190508e8061045e565b9190601f1984168784528c8420935b8d828210610536575050847ffdf4a4f5dc49b1c7fcd6ad049f7e4de2de1aa983742aaaf273edb0a56994cb2f99979461048b946104a19a98946002986001951061051d575b505050811b018555610473565b015160001960f88460031b161c191690558e8080610510565b8484015186558d9b5060019095019493840193016104cb565b858b52898b20601f840160051c8101918b8510610588575b601f0160051c01905b81811061057d5750610410565b8b8155600101610570565b9091508190610567565b634e487b7160e01b8a52604160045260248afd5b846105e59160409796979594955180938192630a85bd0160e11b83523360048401528960248401528760448401526080606484015260848301906111b0565b038188885af1859181610686575b5061064f575050503d600014610647573d9261060e84611389565b9361061c60405195866112c3565b84523d838286013e5b8351938461064157633250574960e11b84526004839052602484fd5b84925001fd5b606092610625565b9394939192916001600160e01b03191663757a42ff60e11b0161067257856103c0565b633250574960e11b85526004829052602485fd5b9091508681813d83116106c3575b61069e81836112c3565b810103126106bf57516001600160e01b0319811681036106bf5790876105f3565b8580fd5b503d610694565b6339e3563760e11b87526004879052602487fd5b858952600388526040892060018154019055610373565b600087815260046020526040902080546001600160a01b03191690558089526003885260408920805460001901905561036d565b60405162461bcd60e51b815260048101879052602160248201527f43616e6e6f74207472616e73666572206c6f636b656420636f6c6c61746572616044820152601b60fa1b6064820152608490fd5b634e487b7160e01b600052601160045260246000fd5b60405162461bcd60e51b815260206004820152601560248201527413595d1859185d1848155492481c995c5d5a5c9959605a1b6044820152606490fd5b60405162461bcd60e51b8152602060048201526011602482015270125b9d985b1a59081c9958da5c1a595b9d607a1b6044820152606490fd5b346101895760203660031901126101895760043560008181526002602052604090205461083b906001600160a01b03161515611420565b600052600a60205261086761085360406000206112e5565b6040519182916020835260208301906111b0565b0390f35b34610189576080366003190112610189576108846111f1565b61088c611207565b906044356064359267ffffffffffffffff84116101895736602385011215610189576108c56108d79436906024816004013591016113a5565b926108d1838383611463565b336116f3565b005b34610189576040366003190112610189576004356024359061090660018060a01b036009541633146113dc565b61090e6116a8565b600081815260026020526040902054610931906001600160a01b03161515611420565b80600052600a60205260ff60016040600020015416610999576000818152600a602052604081206001818101805460ff191690911790556002018390557f52ca0c9f40ef7fc34db743ad1a90f6755f64fa6eb2d7915d9eb7fb6c6b8c24869080a36001600755005b60405162461bcd60e51b815260206004820152600e60248201526d105b1c9958591e481b1bd8dad95960921b6044820152606490fd5b34610189576040366003190112610189576109e86111f1565b6024359081151590818303610189576001600160a01b0316918215610a6457610a369033600052600560205260406000208460005260205260406000209060ff801983541691151516179055565b6040519081527f17307eab39ab6107e8899845ad3d59bd9653f200f220920489ca2b5937696c3160203392a3005b82630b61174360e31b60005260045260246000fd5b34610189576000366003190112610189576040516000600154610a9b81611257565b8084529060018116908115610b225750600114610ac3575b61086783610853818503826112c3565b600160009081527fb10e2d527612073b26eecdfd717e6a320cf44b4afac2b0732d9fcbe2b7fa0cf6939250905b808210610b0857509091508101602001610853610ab3565b919260018160209254838588010152019101909291610af0565b60ff191660208086019190915291151560051b840190910191506108539050610ab3565b34610189576000366003190112610189576006546040516001600160a01b039091168152602090f35b3461018957600036600319011261018957610b886116ca565b600680546001600160a01b031981169091556000906001600160a01b03167f8be0079c531659141344cd1fd0a4f28419497f9722a3daafe3b4186f6b6457e08280a3005b34610189576020366003190112610189576001600160a01b03610bed6111f1565b168015610c0c5760005260036020526020604060002054604051908152f35b6322718ad960e21b600052600060045260246000fd5b34610189576020366003190112610189576020610c40600435611671565b6040516001600160a01b039091168152f35b34610189576108d7610c633661121d565b9060405192610c736020856112c3565b600084526108d1838383611463565b3461018957602036600319011261018957610c9b6111f1565b610ca36116ca565b6001600160a01b03168015610ceb57600980546001600160a01b031916821790557fdc14072151907dd026099a919c1c8d7552cfd31797eb5d81f2c578d0d654abed600080a2005b60405162461bcd60e51b815260206004820152600f60248201526e496e76616c6964206164647265737360881b6044820152606490fd5b3461018957602036600319011261018957600435600060408051610d4581611291565b606081528260208201520152806000526002602052610d7260018060a01b03604060002054161515611420565b600052600a602052610dd3604060002060405190610d8f82611291565b610d98816112e5565b8252600260ff6001830154169160208401921515835201546040830190815260405193849360208552516060602086015260808501906111b0565b9151151560408401525160608301520390f35b3461018957602036600319011261018957600435600052600a602052610e356040600020610e13816112e5565b90600260ff6001830154169101546040519384936060855260608501906111b0565b911515602084015260408301520390f35b34610189576108d7610e573661121d565b91611463565b3461018957600036600319011261018957600854600019810190811161077857602090604051908152f35b3461018957602036600319011261018957600435610eb160018060a01b036009541633146113dc565b610eb96116a8565b600081815260026020526040902054610edc906001600160a01b03161515611420565b80600052600a60205260ff6001604060002001541615610f41576000818152600a6020526040812060018101805460ff191690556002018190557f16bff137dc9a751d3af96d5df7f9066925d7a7e669ec46ebf86326aea0696e189080a26001600755005b60405162461bcd60e51b815260206004820152600a602482015269139bdd081b1bd8dad95960b21b6044820152606490fd5b3461018957604036600319011261018957610f8c6111f1565b602435610f9881611671565b3315158061104f575b80611021575b61100c5781906001600160a01b0384811691167f8c5be1e5ebec7d5bd14f71427d1e84f3dd0314c0f7b2291e5b200ac8c7c3b925600080a4600090815260046020526040902080546001600160a01b0319166001600160a01b03909216919091179055005b63a9fbf51f60e01b6000523360045260246000fd5b506001600160a01b038116600090815260056020908152604080832033845290915290205460ff1615610fa7565b506001600160a01b038116331415610fa1565b346101895760203660031901126101895760043561107f81611671565b506000526004602052602060018060a01b0360406000205416604051908152f35b3461018957600036600319011261018957604051600080546110c181611257565b8084529060018116908115610b2257506001146110e85761086783610853818503826112c3565b60008080527f290decd9548b62a8d60345a988386fc84ba6bc95484008f6362f93160ef3e563939250905b80821061112b57509091508101602001610853610ab3565b919260018160209254838588010152019101909291611113565b34610189576020366003190112610189576004359063ffffffff60e01b8216809203610189576020916380ac58cd60e01b811490811561119f575b811561118e575b5015158152f35b6301ffc9a760e01b14905083611187565b635b5e139f60e01b81149150611180565b919082519283825260005b8481106111dc575050826000602080949584010152601f8019910116010190565b806020809284010151828286010152016111bb565b600435906001600160a01b038216820361018957565b602435906001600160a01b038216820361018957565b6060906003190112610189576004356001600160a01b038116810361018957906024356001600160a01b0381168103610189579060443590565b90600182811c92168015611287575b602083101461127157565b634e487b7160e01b600052602260045260246000fd5b91607f1691611266565b6060810190811067ffffffffffffffff8211176112ad57604052565b634e487b7160e01b600052604160045260246000fd5b90601f8019910116810190811067ffffffffffffffff8211176112ad57604052565b90604051918260008254926112f984611257565b80845293600181169081156113675750600114611320575b5061131e925003836112c3565b565b90506000929192526020600020906000915b81831061134b57505090602061131e9282010138611311565b6020919350806001915483858901015201910190918492611332565b90506020925061131e94915060ff191682840152151560051b82010138611311565b67ffffffffffffffff81116112ad57601f01601f191660200190565b9291926113b182611389565b916113bf60405193846112c3565b829481845281830111610189578281602093846000960137010152565b156113e357565b60405162461bcd60e51b81526020600482015260156024820152744f6e6c79206c656e64696e6720706c6174666f726d60581b6044820152606490fd5b1561142757565b60405162461bcd60e51b8152602060048201526014602482015273151bdad95b88191bd95cc81b9bdd08195e1a5cdd60621b6044820152606490fd5b6001600160a01b039091169190821561165b57600092828452600a60205260ff60016040862001541661160c57828452600260205260408420546001600160a01b031693839190859033151580611574575b507fddf252ad1be2c89b69c2b068fc378daa952ba7f163c4a11628f55a4df523b3ef908261153f575b838152600360209081526040808320805460010190558683526002909152812080546001600160a01b0319168517905580a46001600160a01b031680830361152557505050565b6364283d7b60e01b60005260045260245260445260646000fd5b600085815260046020526040902080546001600160a01b031916905582815260036020526040812080546000190190556114de565b9150919250806115bd575b1561158e5790848492386114b5565b8390856115a757602491637e27328960e01b8252600452fd5b60449163177e802f60e01b825233600452602452fd5b5033851480156115eb575b8061157f5750838152600460205260408120546001600160a01b0316331461157f565b5084815260056020908152604080832033845290915281205460ff166115c8565b60405162461bcd60e51b815260206004820152602160248201527f43616e6e6f74207472616e73666572206c6f636b656420636f6c6c61746572616044820152601b60fa1b6064820152608490fd5b633250574960e11b600052600060045260246000fd5b6000818152600260205260409020546001600160a01b0316908115611694575090565b637e27328960e01b60005260045260246000fd5b6002600754146116b9576002600755565b633ee5aeb560e01b60005260046000fd5b6006546001600160a01b031633036116de57565b63118cdaa760e01b6000523360045260246000fd5b823b611701575b5050505050565b604051630a85bd0160e11b81526001600160a01b03918216600482015291811660248301526044820193909352608060648201529116916020908290819061174d9060848301906111b0565b03816000865af180916000916117ed575b50906117b757503d156117b0573d61177581611389565b9061178360405192836112c3565b81523d6000602083013e5b805190816117ab5782633250574960e11b60005260045260246000fd5b602001fd5b606061178e565b6001600160e01b03191663757a42ff60e11b016117d9575038808080806116fa565b633250574960e11b60005260045260246000fd5b6020813d60201161182f575b81611806602093836112c3565b8101031261182b5751906001600160e01b03198216820361182857503861175e565b80fd5b5080fd5b3d91506117f956fea2646970667358221220845d7f5d38b5f4e62dc1dee599599b76db5394a77c7f00544c2c3095d3a1934e64736f6c634300081c0033",
  "linkReferences": {},
  "deployedLinkReferences": {}
}