{
  "_format": "hh-sol-artifact-1",
  "contractName": "LendingPlatform",
  "sourceName": "contracts/LendingPlatform.sol",
  "abi": [
    {
      "inputs": [
        {
          "internalType": "address",
          "name": "_collateralNFT",
          "type": "address"
        }
      ],
      "stateMutability": "nonpayable",
      "type": "constructor"
    },
    {
      "inputs": [
        {
          "internalType": "address",
          "name": "owner",
          "type": "address"
        }
      ],
      "name": "OwnableInvalidOwner",
      "type": "error"
    },
    {
      "inputs": [
        {
          "internalType": "address",
          "name": "account",
          "type": "address"
        }
      ],
      "name": "OwnableUnauthorizedAccount",
      "type": "error"
    },
    {
      "inputs": [],
      "name": "ReentrancyGuardReentrantCall",
      "type": "error"
    },
    {
      "anonymous": false,
      "inputs": [
        {
          "indexed": true,
          "internalType": "uint256",
          "name": "loanId",
          "type": "uint256"
        }
      ],
      "name": "LoanCancelled",
      "type": "event"
    },
    {
      "anonymous": false,
      "inputs": [
        {
          "indexed": true,
          "internalType": "uint256",
          "name": "loanId",
          "type": "uint256"
        }
      ],
      "name": "LoanCompleted",
      "type": "event"
    },
    {
      "anonymous": false,
      "inputs": [
        {
          "indexed": true,
          "internalType": "uint256",
          "name": "loanId",
          "type": "uint256"
        },
        {
          "indexed": true,
          "internalType": "address",
          "name": "borrower",
          "type": "address"
        },
        {
          "indexed": false,
          "internalType": "uint256",
          "name": "collateralTokenId",
          "type": "uint256"
        },
        {
          "indexed": false,
          "internalType": "uint256",
          "name": "principal",
          "type": "uint256"
        },
        {
          "indexed": false,
          "internalType": "uint256",
          "name": "totalRepayment",
          "type": "uint256"
        }
      ],
      "name": "LoanCreated",
      "type": "event"
    },
    {
      "anonymous": false,
      "inputs": [
        {
          "indexed": true,
          "internalType": "uint256",
          "name": "loanId",
          "type": "uint256"
        }
      ],
      "name": "LoanDefaulted",
      "type": "event"
    },
    {
      "anonymous": false,
      "inputs": [
        {
          "indexed": true,
          "internalType": "uint256",
          "name": "loanId",
          "type": "uint256"
        }
      ],
      "name": "LoanFullyFunded",
      "type": "event"
    },
    {
      "anonymous": false,
      "inputs": [
        {
          "indexed": true,
          "internalType": "uint256",
          "name": "loanId",
          "type": "uint256"
        },
        {
          "indexed": true,
          "internalType": "address",
          "name": "lender",
          "type": "address"
        },
        {
          "indexed": false,
          "internalType": "uint256",
          "name": "amount",
          "type": "uint256"
        }
      ],
      "name": "LoanFunded",
      "type": "event"
    },
    {
      "anonymous": false,
      "inputs": [
        {
          "indexed": true,
          "internalType": "address",
          "name": "previousOwner",
          "type": "address"
        },
        {
          "indexed": true,
          "internalType": "address",
          "name": "newOwner",
          "type": "address"
        }
      ],
      "name": "OwnershipTransferred",
      "type": "event"
    },
    {
      "anonymous": false,
      "inputs": [
        {
          "indexed": true,
          "internalType": "uint256",
          "name": "loanId",
          "type": "uint256"
        },
        {
          "indexed": false,
          "internalType": "uint256",
          "name": "actualAmount",
          "type": "uint256"
        }
      ],
      "name": "PartialFundingAccepted",
      "type": "event"
    },
    {
      "anonymous": false,
      "inputs": [
        {
          "indexed": true,
          "internalType": "uint256",
          "name": "loanId",
          "type": "uint256"
        },
        {
          "indexed": false,
          "internalType": "uint256",
          "name": "paymentNumber",
          "type": "uint256"
        },
        {
          "indexed": false,
          "internalType": "uint256",
          "name": "amount",
          "type": "uint256"
        }
      ],
      "name": "PaymentMade",
      "type": "event"
    },
    {
      "anonymous": false,
      "inputs": [
        {
          "indexed": false,
          "internalType": "uint256",
          "name": "newFeeRate",
          "type": "uint256"
        }
      ],
      "name": "PlatformFeeUpdated",
      "type": "event"
    },
    {
      "anonymous": false,
      "inputs": [
        {
          "indexed": true,
          "internalType": "uint256",
          "name": "loanId",
          "type": "uint256"
        },
        {
          "indexed": true,
          "internalType": "address",
          "name": "lender",
          "type": "address"
        },
        {
          "indexed": false,
          "internalType": "uint256",
          "name": "amount",
          "type": "uint256"
        }
      ],
      "name": "RefundClaimed",
      "type": "event"
    },
    {
      "inputs": [
        {
          "internalType": "uint256",
          "name": "loanId",
          "type": "uint256"
        }
      ],
      "name": "acceptPartialFunding",
      "outputs": [],
      "stateMutability": "nonpayable",
      "type": "function"
    },
    {
      "inputs": [
        {
          "internalType": "uint256",
          "name": "loanId",
          "type": "uint256"
        }
      ],
      "name": "cancelLoan",
      "outputs": [],
      "stateMutability": "nonpayable",
      "type": "function"
    },
    {
      "inputs": [
        {
          "internalType": "uint256",
          "name": "loanId",
          "type": "uint256"
        }
      ],
      "name": "claimRefund",
      "outputs": [],
      "stateMutability": "nonpayable",
      "type": "function"
    },
    {
      "inputs": [],
      "name": "collateralNFT",
      "outputs": [
        {
          "internalType": "contract CollateralNFT",
          "name": "",
          "type": "address"
        }
      ],
      "stateMutability": "view",
      "type": "function"
    },
    {
      "inputs": [
        {
          "internalType": "uint256",
          "name": "collateralTokenId",
          "type": "uint256"
        },
        {
          "internalType": "uint256",
          "name": "principal",
          "type": "uint256"
        },
        {
          "internalType": "uint256",
          "name": "marginRate",
          "type": "uint256"
        },
        {
          "internalType": "uint256",
          "name": "duration",
          "type": "uint256"
        }
      ],
      "name": "createLoanRequest",
      "outputs": [
        {
          "internalType": "uint256",
          "name": "",
          "type": "uint256"
        }
      ],
      "stateMutability": "nonpayable",
      "type": "function"
    },
    {
      "inputs": [
        {
          "internalType": "uint256",
          "name": "loanId",
          "type": "uint256"
        }
      ],
      "name": "fundLoan",
      "outputs": [],
      "stateMutability": "payable",
      "type": "function"
    },
    {
      "inputs": [
        {
          "internalType": "uint256",
          "name": "loanId",
          "type": "uint256"
        }
      ],
      "name": "getLoan",
      "outputs": [
        {
          "components": [
            {
              "internalType": "uint256",
              "name": "loanId",
              "type": "uint256"
            },
            {
              "internalType": "address",
              "name": "borrower",
              "type": "address"
            },
            {
              "internalType": "uint256",
              "name": "collateralTokenId",
              "type": "uint256"
            },
            {
              "internalType": "uint256",
              "name": "principal",
              "type": "uint256"
            },
            {
              "internalType": "uint256",
              "name": "margin",
              "type": "uint256"
            },
            {
              "internalType": "uint256",
              "name": "totalRepayment",
              "type": "uint256"
            },
            {
              "internalType": "uint256",
              "name": "monthlyPayment",
              "type": "uint256"
            },
            {
              "internalType": "uint256",
              "name": "duration",
              "type": "uint256"
            },
            {
              "internalType": "enum LendingPlatform.LoanStatus",
              "name": "status",
              "type": "uint8"
            },
            {
              "internalType": "uint256",
              "name": "totalFunded",
              "type": "uint256"
            },
            {
              "internalType": "uint256",
              "name": "totalRepaid",
              "type": "uint256"
            },
            {
              "internalType": "uint256",
              "name": "paymentsRemaining",
              "type": "uint256"
            },
            {
              "internalType": "uint256",
              "name": "createdAt",
              "type": "uint256"
            },
            {
              "internalType": "uint256",
              "name": "fundedAt",
              "type": "uint256"
            },
            {
              "internalType": "uint256",
              "name": "dueDate",
              "type": "uint256"
            }
          ],
          "internalType": "struct LendingPlatform.Loan",
          "name": "",
          "type": "tuple"
        }
      ],
      "stateMutability": "view",
      "type": "function"
    },
    {
      "inputs": [
        {
          "internalType": "uint256",
          "name": "loanId",
          "type": "uint256"
        }
      ],
      "name": "getLoanInvestments",
      "outputs": [
        {
          "components": [
            {
              "internalType": "address",
              "name": "lender",
              "type": "address"
            },
            {
              "internalType": "uint256",
              "name": "amount",
              "type": "uint256"
            },
            {
              "internalType": "uint256",
              "name": "sharePercentage",
              "type": "uint256"
            }
          ],
          "internalType": "struct LendingPlatform.Investment[]",
          "name": "",
          "type": "tuple[]"
        }
      ],
      "stateMutability": "view",
      "type": "function"
    },
    {
      "inputs": [
        {
          "internalType": "uint256",
          "name": "loanId",
          "type": "uint256"
        },
        {
          "internalType": "uint256",
          "name": "paymentNumber",
          "type": "uint256"
        }
      ],
      "name": "isPaymentMade",
      "outputs": [
        {
          "internalType": "bool",
          "name": "",
          "type": "bool"
        }
      ],
      "stateMutability": "view",
      "type": "function"
    },
    {
      "inputs": [
        {
          "internalType": "uint256",
          "name": "",
          "type": "uint256"
        },
        {
          "internalType": "uint256",
          "name": "",
          "type": "uint256"
        }
      ],
      "name": "loanInvestments",
      "outputs": [
        {
          "internalType": "address",
          "name": "lender",
          "type": "address"
        },
        {
          "internalType": "uint256",
          "name": "amount",
          "type": "uint256"
        },
        {
          "internalType": "uint256",
          "name": "sharePercentage",
          "type": "uint256"
        }
      ],
      "stateMutability": "view",
      "type": "function"
    },
    {
      "inputs": [
        {
          "internalType": "uint256",
          "name": "",
          "type": "uint256"
        }
      ],
      "name": "loans",
      "outputs": [
        {
          "internalType": "uint256",
          "name": "loanId",
          "type": "uint256"
        },
        {
          "internalType": "address",
          "name": "borrower",
          "type": "address"
        },
        {
          "internalType": "uint256",
          "name": "collateralTokenId",
          "type": "uint256"
        },
        {
          "internalType": "uint256",
          "name": "principal",
          "type": "uint256"
        },
        {
          "internalType": "uint256",
          "name": "margin",
          "type": "uint256"
        },
        {
          "internalType": "uint256",
          "name": "totalRepayment",
          "type": "uint256"
        },
        {
          "internalType": "uint256",
          "name": "monthlyPayment",
          "type": "uint256"
        },
        {
          "internalType": "uint256",
          "name": "duration",
          "type": "uint256"
        },
        {
          "internalType": "enum LendingPlatform.LoanStatus",
          "name": "status",
          "type": "uint8"
        },
        {
          "internalType": "uint256",
          "name": "totalFunded",
          "type": "uint256"
        },
        {
          "internalType": "uint256",
          "name": "totalRepaid",
          "type": "uint256"
        },
        {
          "internalType": "uint256",
          "name": "paymentsRemaining",
          "type": "uint256"
        },
        {
          "internalType": "uint256",
          "name": "createdAt",
          "type": "uint256"
        },
        {
          "internalType": "uint256",
          "name": "fundedAt",
          "type": "uint256"
        },
        {
          "internalType": "uint256",
          "name": "dueDate",
          "type": "uint256"
        }
      ],
      "stateMutability": "view",
      "type": "function"
    },
    {
      "inputs": [
        {
          "internalType": "uint256",
          "name": "loanId",
          "type": "uint256"
        },
        {
          "internalType": "uint256",
          "name": "paymentNumber",
          "type": "uint256"
        }
      ],
      "name": "makePayment",
      "outputs": [],
      "stateMutability": "payable",
      "type": "function"
    },
    {
      "inputs": [
        {
          "internalType": "uint256",
          "name": "loanId",
          "type": "uint256"
        }
      ],
      "name": "markAsDefault",
      "outputs": [],
      "stateMutability": "nonpayable",
      "type": "function"
    },
    {
      "inputs": [],
      "name": "owner",
      "outputs": [
        {
          "internalType": "address",
          "name": "",
          "type": "address"
        }
      ],
      "stateMutability": "view",
      "type": "function"
    },
    {
      "inputs": [
        {
          "internalType": "uint256",
          "name": "",
          "type": "uint256"
        },
        {
          "internalType": "uint256",
          "name": "",
          "type": "uint256"
        }
      ],
      "name": "paymentsMade",
      "outputs": [
        {
          "internalType": "bool",
          "name": "",
          "type": "bool"
        }
      ],
      "stateMutability": "view",
      "type": "function"
    },
    {
      "inputs": [],
      "name": "platformFeeRate",
      "outputs": [
        {
          "internalType": "uint256",
          "name": "",
          "type": "uint256"
        }
      ],
      "stateMutability": "view",
      "type": "function"
    },
    {
      "inputs": [],
      "name": "renounceOwnership",
      "outputs": [],
      "stateMutability": "nonpayable",
      "type": "function"
    },
    {
      "inputs": [
        {
          "internalType": "uint256",
          "name": "newFeeRate",
          "type": "uint256"
        }
      ],
      "name": "setPlatformFeeRate",
      "outputs": [],
      "stateMutability": "nonpayable",
      "type": "function"
    },
    {
      "inputs": [],
      "name": "totalLoans",
      "outputs": [
        {
          "internalType": "uint256",
          "name": "",
          "type": "uint256"
        }
      ],
      "stateMutability": "view",
      "type": "function"
    },
    {
      "inputs": [
        {
          "internalType": "address",
          "name": "newOwner",
          "type": "address"
        }
      ],
      "name": "transferOwnership",
      "outputs": [],
      "stateMutability": "nonpayable",
      "type": "function"
    },
    {
      "inputs": [],
      "name": "withdrawFees",
      "outputs": [],
      "stateMutability": "nonpayable",
      "type": "function"
    }
  ],
  "bytecode": "0x60803461012f57601f611e2038819003918201601f19168301916001600160401b038311848410176101345780849260209460405283398101031261012f57516001600160a01b0381169081900361012f5733156101195760008054336001600160a01b03198216811783556040519290916001600160a01b0316907f8be0079c531659141344cd1fd0a4f28419497f9722a3daafe3b4186f6b6457e09080a36001805560c860045581156100d75750600280546001600160a01b0319169190911790556001600355604051611cd5908161014b8239f35b62461bcd60e51b815260206004820152601e60248201527f496e76616c696420636f6c6c61746572616c204e4654206164647265737300006044820152606490fd5b631e4fbdf760e01b600052600060045260246000fd5b600080fd5b634e487b7160e01b600052604160045260246000fdfe608080604052600436101561001357600080fd5b600090813560e01c9081634077b79914611a0e57508063431ab0e3146119e5578063476343ee14611961578063504006ca1461174f5780635b7baf64146115865780635bf1dd0614611470578063703e284a14611235578063715018a6146111db578063846b909a14610eed5780638da5cb5b14610ec6578063927fef2e14610e3a57806395e188b11461091c578063b59d38d714610884578063bdbfa3de1461078f578063cc952b571461074f578063d390f97414610321578063e1ec3c6814610243578063e57bd0eb14610211578063eeca08f0146101f3578063f2fde38b146101655763fa9175411461010857600080fd5b346101625761011636611a3d565b919081526006602052604081209081548310156101625760606101398484611a7b565b5060018060a01b0381541690600260018201549101549060405192835260208301526040820152f35b80fd5b5034610162576020366003190112610162576004356001600160a01b038116908190036101ef57610194611c54565b80156101db5781546001600160a01b03198116821783556001600160a01b03167f8be0079c531659141344cd1fd0a4f28419497f9722a3daafe3b4186f6b6457e08380a380f35b631e4fbdf760e01b82526004829052602482fd5b5080fd5b50346101625780600319360112610162576020600454604051908152f35b50346101625760ff604060209261022736611a3d565b9082526007855282822090825284522054166040519015158152f35b50346101625760203660031901126101625760043581526005602052604090208054600160a01b6001900360018301541691600281015460038201546004830154600584015460068501546007860154600887015460ff1691600988015493600a89015495600b8a015497600c8b015499600d8c01549b600e01549c6040519e8f91825260208201526040015260608d015260808c015260a08b015260c08a015260e089015261010088016102f791611a58565b6101208701526101408601526101608501526101808401526101a08301526101c08201526101e090f35b5061032b36611a3d565b90610334611c7d565b8083526005602052604083209161034d83541515611b1e565b600883019160ff835416600581101561073b57600161036c9114611c02565b60018401546001600160a01b031633036106fe57811515806106f0575b156106b25780855260076020526040852082865260205260ff60408620541661067657600684015434036106315780855260076020526040852082865260205260408520600160ff19825416179055600a84016103e7348254611be8565b9055600b8401938454801561061d5760001901855581865260066020526040862093845467ffffffffffffffff8111610609576040519561042e60208360051b0188611afc565b81875288526020808920899188015b8383106105cb5750505050865b85518110156104b257878080806127106104726040610469888e611c40565b51015134611b9f565b046001600160a01b03610485878d611c40565b5151168282156104a9575bf11561049e5760010161044a565b6040513d89823e3d90fd5b506108fc610490565b508693945085541580156105a0575b837fcf358e925a8e033c6db877f18d10df6f21cd04ef165537bad5fc814eb23af960604087988198979851908152346020820152a2610503575b826001805580f35b600260ff19825416179055600260018060a01b03815416910154813b1561059c5782916024839260405194859384926307e641a760e11b845260048401525af180156105915761057c575b50807f02ca5489b37dd363d1302bac719e8ee40e540ffbe8c12253570fea63e11cad7191a2818181806104fb565b8161058691611afc565b6101ef57818361054e565b6040513d84823e3d90fd5b8280fd5b62278d0042018042116105b757600e8401556104c1565b634e487b7160e01b86526011600452602486fd5b600360206001926040516105de81611ae0565b848060a01b03865416815284860154838201526002860154604082015281520192019201919061043d565b634e487b7160e01b88526041600452602488fd5b634e487b7160e01b87526011600452602487fd5b60405162461bcd60e51b815260206004820152601d60248201527f4d75737420706179206578616374206d6f6e74686c7920616d6f756e740000006044820152606490fd5b60405162461bcd60e51b81526020600482015260146024820152735061796d656e7420616c7265616479206d61646560601b6044820152606490fd5b60405162461bcd60e51b815260206004820152601660248201527524b73b30b634b2103830bcb6b2b73a10373ab6b132b960511b6044820152606490fd5b506007840154821115610389565b60405162461bcd60e51b81526020600482015260156024820152744f6e6c7920626f72726f7765722063616e2070617960581b6044820152606490fd5b634e487b7160e01b86526021600452602486fd5b503461016257806003193601126101625760035460001981019190821161077b57602082604051908152f35b634e487b7160e01b81526011600452602490fd5b5034610162576020366003190112610162576004356107ac611c54565b8082526005602052604082206107c481541515611b1e565b6008810160ff815416600581101561087057906107e385939215611b60565b805460ff19166004179055600280549101546001600160a01b039190911690813b1561059c5782916024839260405194859384926307e641a760e11b845260048401525af180156105915761085b575b50807fb71becc91961a6b43bcc5b3b630f3dce02c7fd444cf3738c4f188062b1caf5bc91a280f35b8161086591611afc565b6101ef578138610833565b634e487b7160e01b85526021600452602485fd5b5034610162576020366003190112610162576004356108a1611c54565b80825260056020526008604083206108bb81541515611b1e565b0160ff81541660058110156109085760016108d69114611c02565b805460ff191660031790557f0789b7097e8066538cfaa1132488b132e14ba5f0c938c8b7aaf8cf40356aab0b8280a280f35b634e487b7160e01b84526021600452602484fd5b503461016257608036600319011261016257604435610939611c7d565b60243515610df557606435151580610de8575b15610da35780151580610d97575b15610d56576002546040516331a9108f60e11b815260048035908201526001600160a01b0390911690602081602481855afa908115610d4b578491610d05575b50336001600160a01b0390911603610cc05760206024916040519283809263f6aacfb160e01b825260043560048301525afa908115610cb5578391610c7a575b50610c39576109fb6201d4c0916109f660643591602435611b9f565b611b9f565b0490610a0982602435611be8565b610a1560643582611bc8565b60035491906000198314610c25576001830160035560405194610a3786611aad565b8386523360208701526004356040870152602435606087015260808601528160a086015260c085015260643560e085015282610100850152610120840183815261014085018481526101608601606435815261018087014281526101a08801918783526101c0890193888552878952600560205260408920958a51875560018060a01b0360208c015116600188019060018060a01b031660018060a01b031982541617905560408b0151600288015560608b0151600388015560808b0151600488015560a08b0151600588015560c08b0151600688015560e08b01516007880155610100600888019b01519a60058c1015610c11578a9b600e98999a9b5060ff8019835416911617905551600988015551600a87015551600b86015551600c85015551600d840155519101558260018060a01b0360025416803b156101ef578190604460405180978193632c7e44cf60e21b835260043560048401528860248401525af1938415610c0457602094610bf4575b5050604051906004358252602435848301526040820152817fb2cca1719ad611d325136b9c9a4357f412d33694d93c60d4c1b6e922d524cf5960603393a360018055604051908152f35b81610bfe91611afc565b38610baa565b50604051903d90823e3d90fd5b634e487b7160e01b8b52602160045260248bfd5b634e487b7160e01b84526011600452602484fd5b60405162461bcd60e51b815260206004820152601960248201527810dbdb1b185d195c985b08185b1c9958591e481b1bd8dad959603a1b6044820152606490fd5b90506020813d602011610cad575b81610c9560209383611afc565b8101031261059c5751801515810361059c57386109da565b3d9150610c88565b6040513d85823e3d90fd5b60405162461bcd60e51b815260206004820152601d60248201527f596f7520646f6e2774206f776e207468697320636f6c6c61746572616c0000006044820152606490fd5b90506020813d602011610d43575b81610d2060209383611afc565b81010312610d3f57516001600160a01b0381168103610d3f573861099a565b8380fd5b3d9150610d13565b6040513d86823e3d90fd5b60405162461bcd60e51b81526020600482015260196024820152784d617267696e2072617465206d75737420626520302d33302560381b6044820152606490fd5b50610bb881111561095a565b60405162461bcd60e51b815260206004820152601c60248201527f4475726174696f6e206d75737420626520312d3630206d6f6e746873000000006044820152606490fd5b50603c606435111561094c565b60405162461bcd60e51b815260206004820152601a60248201527f5072696e636970616c206d75737420626520706f7369746976650000000000006044820152606490fd5b503461016257602036600319011261016257600435610e57611c54565b6103e88111610e92576020817f45610d581145924dd7090a5017e5f2b1d6f42213bb2e95707ff86846bbfcb1ca92600455604051908152a180f35b60405162461bcd60e51b815260206004820152600c60248201526b08ccaca40e8dede40d0d2ced60a31b6044820152606490fd5b5034610162578060031936011261016257546040516001600160a01b039091168152602090f35b50602036600319011261016257600435610f05611c7d565b808252600560205260408220610f1d81541515611b1e565b6008810160ff815416600581101561087057611196573415611161576009820190610f49348354611be8565b9160038401928354809111611125576127103402348104612710036111115790610f7291611bc8565b8587526006602052604087209060405191610f8c83611ae0565b33835234602084019081526040840192835281549091600160401b8210156110fd5790610fbe91600182018155611a7b565b9390936110e9575183546001600160a01b0319166001600160a01b039190911617835551600183015551600291909101558054610ffc903490611be8565b809155604051348152857fbd7ef6c6281278f6c8ac4ae9ef2f205b52425813c288dd47c377cb6b59c5076e60203393a382541461103c575b846001805580f35b600160ff1982541617905542600d83015562278d0042018042116110d5578483611082829594839594600e859601555461271061107b60045483611b9f565b0490611bf5565b6001909101546001600160a01b03168282156110cc575bf115610c04577f850d8a952ebb715ab9142d9e5ee02d5e2dae476c9f464131f8c5978dda43f67c8280a238808080611034565b506108fc611099565b634e487b7160e01b85526011600452602485fd5b634e487b7160e01b8a5260048a905260248afd5b634e487b7160e01b8b52604160045260248bfd5b634e487b7160e01b88526011600452602488fd5b60405162461bcd60e51b8152602060048201526014602482015273115e18d959591cc8199d5b991a5b99c819dbd85b60621b6044820152606490fd5b60405162461bcd60e51b815260206004820152600d60248201526c09aeae6e840e6cadcc8408aa89609b1b6044820152606490fd5b60405162461bcd60e51b815260206004820152601e60248201527f4c6f616e206e6f7420617661696c61626c6520666f722066756e64696e6700006044820152606490fd5b50346101625780600319360112610162576111f4611c54565b80546001600160a01b03198116825581906001600160a01b03167f8be0079c531659141344cd1fd0a4f28419497f9722a3daafe3b4186f6b6457e08280a380f35b50346101625760203660031901126101625760043590611253611c54565b61125b611c7d565b81815260056020526040812061127381541515611b1e565b600881019160ff835416600581101561145c576112909015611b60565b60098201549384156114265760038301805490818710156113ea57866112d7916112e8936112cc60048901916112c7835486611b9f565b611bc8565b928392555587611be8565b806005860155600785015490611bc8565b600684015580825260066020526040822092825b845481101561134b5760016113118287611a7b565b50015461271081029080820461271014901517156110d5579061133688600193611bc8565b60026113428389611a7b565b500155016112fc565b50859085600160ff1982541617905542600d82015562278d0042018042116110d557848083819493600e8395015561139261271061138b60045489611b9f565b0487611bf5565b6001909101546001600160a01b03168282156113e1575bf1156105915760207f8eccb522dda8c3ea7180ed6b8d995dbbefbe35fbadd88001ea5ffc9f5841d37a91604051908152a26001805580f35b506108fc6113a9565b60405162461bcd60e51b8152602060048201526014602482015273105b1c9958591e48199d5b1b1e48199d5b99195960621b6044820152606490fd5b60405162461bcd60e51b815260206004820152600e60248201526d139bc8199d5b991a5b99c81e595d60921b6044820152606490fd5b634e487b7160e01b82526021600452602482fd5b5034610162576020366003190112610162576004358152600660205260408120805467ffffffffffffffff811161157257604051906114b560208260051b0183611afc565b80825260208201809385526020852085915b83831061153457868587604051928392602084019060208552518091526040840192915b8181106114f9575050500390f35b825180516001600160a01b031685526020818101518187015260409182015191860191909152869550606090940193909201916001016114eb565b6003602060019260405161154781611ae0565b848060a01b0386541681528486015483820152600286015460408201528152019201920191906114c7565b634e487b7160e01b83526041600452602483fd5b5034610162576020366003190112610162576004356115a3611c7d565b808252600560205260ff6008604084206115bf81541515611b1e565b015416600581101561173b57600403611701578082526006602052604082209082918384858354905b8181106116c0575b50501561168557831561164d5761160a6001918693611a7b565b50015582808080853382f115610591576040519182527ff3f402280ef0a7905e124aa621b65eaeb2725c343e8b36d398ed78c29daf285c60203393a36001805580f35b60405162461bcd60e51b815260206004820152601060248201526f105b1c9958591e481c99599d5b99195960821b6044820152606490fd5b60405162461bcd60e51b8152602060048201526013602482015272139bc81a5b9d995cdd1b595b9d08199bdd5b99606a1b6044820152606490fd5b6116ca8186611a7b565b50546001600160a01b031633146116e3576001016115e8565b955050505060016116f48483611a7b565b50015492600138806115f0565b60405162461bcd60e51b8152602060048201526012602482015271131bd85b881b9bdd0818d85b98d95b1b195960721b6044820152606490fd5b634e487b7160e01b83526021600452602483fd5b503461016257602036600319011261016257600435816101c060405161177481611aad565b8281528260208201528260408201528260608201528260808201528260a08201528260c08201528260e08201528261010082015282610120820152826101408201528261016082015282610180820152826101a0820152015280825260056020526117e460408320541515611b1e565b815260056020526040812090604051916117fd83611aad565b8054835260018060a01b03600182015416926020810193845260028201549260408201938452600383015490606083019182526004840154906080840191825260058501549060a08501918252600686015460c0860190815260078701549060e0870191825260ff600889015416610100880193600582101561194d575083526009880154936101208801948552600a890154956101408901968752600b8a0154976101608a01988952600c8b01549961018081019a8b52600d8c01549b6101a082019c8d52600e01549c6101c082019d8e526040519e8f92518352600160a01b6001900390511660208301525190604001525160608d01525160808c01525160a08b01525160c08a01525160e089015251610100880161191d91611a58565b51610120870152516101408601525161016085015251610180840152516101a0830152516101c08201526101e090f35b634e487b7160e01b81526021600452602490fd5b503461016257806003193601126101625761197a611c54565b4780156119aa57815482918291829182916001600160a01b031682f11561199e5780f35b604051903d90823e3d90fd5b60405162461bcd60e51b81526020600482015260136024820152724e6f206665657320746f20776974686472617760681b6044820152606490fd5b50346101625780600319360112610162576002546040516001600160a01b039091168152602090f35b9050346101ef5760ff6040602093611a2536611a3d565b90825260078652828220908252855220541615158152f35b6040906003190112611a53576004359060243590565b600080fd5b906005821015611a655752565b634e487b7160e01b600052602160045260246000fd5b8054821015611a97576000526003602060002091020190600090565b634e487b7160e01b600052603260045260246000fd5b6101e0810190811067ffffffffffffffff821117611aca57604052565b634e487b7160e01b600052604160045260246000fd5b6060810190811067ffffffffffffffff821117611aca57604052565b90601f8019910116810190811067ffffffffffffffff821117611aca57604052565b15611b2557565b60405162461bcd60e51b8152602060048201526013602482015272131bd85b88191bd95cc81b9bdd08195e1a5cdd606a1b6044820152606490fd5b15611b6757565b60405162461bcd60e51b815260206004820152601060248201526f4c6f616e206e6f742070656e64696e6760801b6044820152606490fd5b81810292918115918404141715611bb257565b634e487b7160e01b600052601160045260246000fd5b8115611bd2570490565b634e487b7160e01b600052601260045260246000fd5b91908201809211611bb257565b91908203918211611bb257565b15611c0957565b60405162461bcd60e51b815260206004820152600f60248201526e4c6f616e206e6f742061637469766560881b6044820152606490fd5b8051821015611a975760209160051b010190565b6000546001600160a01b03163303611c6857565b63118cdaa760e01b6000523360045260246000fd5b600260015414611c8e576002600155565b633ee5aeb560e01b60005260046000fdfea264697066735822122081d5384c148e033e75e2ab362cdc82661cce7cf3eac1dbee218801eed295bcb764736f6c634300081c0033",
  "linkReferences": {},
  "deployedLinkReferences": {}
}